:1000000012C024C023C022C021C020C01FC01EC0F7
:100010001DC01CC01BC01AC019C018C017C016C014
:1000200015C014C013C011241FBECFE5D4E0DEBF3D
:10003000CDBF11E0A0E6B0E0E8E1F1E102C005903B
:100040000D92A238B107D9F74AD164C8D9CF81B38C
:100050008F7081BB919A909824E0929A822F8A9512
:10006000F1F780B39298922F9A95F1F7929A90B304
:100070009298922F9A95F1F787FDEFCF81B3806F19
:1000800081BB08950F931F93082F162FE0DF9198DF
:10009000112311F0909A01C09098929A24E0822F37
:1000A0008A95F1F782B3902F907F8F70982B92BB37
:1000B00092982A95F1F7929A82B30295007F8F70F9
:1000C000802B82BB92981F910F9108951F93CF931D
:1000D000DF93182F2CE231E04CE251E0CCE2D1E08A
:1000E000CA010197F1F721503040C1F712BA8FEFE2
:1000F00081BB82E060E0C6DFCE010197F1F788E2C4
:1001000060E0C0DFCE010197F1F7812F8C6060E0E5
:10011000B9DFDF91CF911F910895982F613011F4CD
:1001200080EC09C0623011F484E905C0633011F439
:1001300084ED01C080E8890F60E0A4DF0895CF93CB
:10014000DF93EC0103C0219661E09CDF8881882366
:10015000D1F7DF91CF910895EF92FF921F93DF9334
:10016000CF9300D000D00F92CDB7DEB79C0100979F
:1001700021F480E690E0E3DF21C010E07E010894E6
:10018000E11CF11CF701E10FF11DC9016AE070E00B
:1001900077D780831F5FC9016AE070E071D79B0148
:1001A0006115710579F708C0FE01E10FF11D80812D
:1001B000805D61E067DF11501123B1F70F900F9060
:1001C0000F900F900F90CF91DF911F91FF90EF90C4
:1001D0000895EF92FF920F931F937B018C0120E013
:1001E00030E040E050E027D4882321F485E690E019
:1001F000A6DF17C0C801B70174D4DC01CB01ACDFA6
:1002000088E690E09CDFC801B70120E030E048ECD0
:1002100052E475D266D4DC01CB0164E670E030D7DD
:100220009BDF1F910F91FF90EF900895FF920F9326
:100230001F93DF93CF9300D000D00F92CDB7DEB7DE
:100240009C01462FFE01319685E0DF011D928A95C3
:10025000E9F780E38983FF248F010DC0E00FF11FD0
:10026000C9016AE070E0F8D68083F394C9016AE0BE
:1002700070E0F2D69B01EF2DF0E02115310571F70A
:10028000E00FF11F1082042F10E004C08AE690E016
:1002900056DFFA94C8018F19910918161906B4F39C
:1002A000CE0101964CDF0F900F900F900F900F90A2
:1002B000CF91DF911F910F91FF90089580E487B94E
:1002C00087E886B9089597B18770892B87B9369AE0
:1002D000349BFECF349A24B135B1C9010895CF9231
:1002E000DF92EF92FF920F931F93CF93DF9380E003
:1002F000EDDE80E487B987E886B981E060E0C2DEA0
:1003000080E060E00ADF90E4C92E87E8D82ECCE2D6
:10031000D1E0C7B8D6B840E020E030E0389A369A4D
:10032000349BFECF349A84B195B1280F391F4F5FAB
:100330004A30A1F7C9016AE070E08ED680E090E013
:1003400021D420E030E040E85AE3D9D120E030E089
:1003500040EA50E4D4D120E030E040E250E47DD1E6
:100360007B018C0180E061E0D8DE8CE690E0E7DE86
:10037000C801B70120E030E040E050E087D3882397
:100380003CF417FB109517F9109585E790E0D7DE40
:10039000C801B70127EE3BEF49EA5DE3A5D220E0B3
:1003A00030E04AE754E4ABD114DF87E790E0C7DEE2
:1003B00088E893E1FE013197F1F70197D9F781E0E1
:1003C00060E060DEA6CFA0E0B0E0E8EEF1E06BC652
:1003D000DC012B01FA019C91923008F439C1EB0148
:1003E0008881823008F433C1943069F4843009F094
:1003F0002FC111969C9111978981981709F428C1F2
:10040000AAE7B0E025C1843009F421C18230A9F403
:10041000923009F01DC19A01AD0188E0EA0109900E
:10042000AE01E90109929E018150C1F7E201898183
:1004300011969C918923818308C1923009F407C1E8
:1004400012962D903C901397EB018A819B81149614
:10045000AD90BD90CD90DC901797EC80FD800E8123
:100460001F819101281B390BB90137FF04C0662792
:100470007727621B730B603271050CF061C0121696
:1004800013066CF537014801062E04C09694879434
:10049000779467940A94D2F721E030E040E050E08E
:1004A00004C0220F331F441F551F6A95D2F72150F5
:1004B0003040404050402E213F2140235123211500
:1004C00031054105510521F021E030E040E050E0E8
:1004D00079018A01E628F728082919293CC0232B2D
:1004E000D1F1260E371E35014601062E04C0969422
:1004F0008794779467940A94D2F721E030E040E043
:1005000050E004C0220F331F441F551F6A95D2F7D5
:1005100021503040404050402A213B214C215D2158
:10052000211531054105510521F021E030E040E081
:1005300050E059016A01A628B728C828D9280BC05D
:10054000821593052CF01C01AA24BB24650103C06D
:10055000EE24FF24870111969C91D20111968C9173
:10056000981709F445C0992339F0A80197012A1971
:100570003B094C095D0906C0A60195012E193F09EA
:10058000400B510B57FD08C0118233822282248315
:100590003583468357831DC081E081833382228265
:1005A00088279927DC01821B930BA40BB50B84834E
:1005B0009583A683B7830DC0220F331F441F551F99
:1005C0002483358346835783828193810197938364
:1005D00082832481358146815781DA01C9010197DF
:1005E000A109B1098F5F9F4FAF4FBF4328F30BC0E5
:1005F000918333822282EA0CFB1C0C1D1D1DE482B8
:10060000F5820683178383E08083248135814681C8
:10061000578157FF1AC0C901AA2797FDA095BA2F85
:1006200081709070A070B07056954795379527955A
:10063000822B932BA42BB52B84839583A683B7831E
:1006400082819381019693838283DF0101C0D2016D
:10065000CD01CDB7DEB7E2E142C5A0E2B0E0E2E312
:10066000F3E02DC569837A838B839C832D833E833E
:100670004F835887E9E0EE2EF12CEC0EFD1ECE01E3
:100680000196B70118D48E010F5E1F4FCE0105965B
:10069000B80111D48A8991E089278A8BC701B801F2
:1006A000AE01475E5F4F8FDE31D3A096E6E023C5F3
:1006B000A0E2B0E0EDE5F3E002C569837A838B83C5
:1006C0009C832D833E834F835887F9E0EF2EF12CD6
:1006D000EC0EFD1ECE010196B701EDD38E010F5E2B
:1006E0001F4FCE010596B801E6D3C701B801AE0190
:1006F000475E5F4F68DE0AD3A096E6E0FCC4A0E246
:10070000B0E0E4E8F3E0CFC469837A838B839C8311
:100710002D833E834F835887CE010196BE01675FCC
:100720007F4FC9D3CE010596BE016F5E7F4FC3D305
:100730009985923088F089898230C8F0943019F414
:10074000823051F404C0843029F4923081F48AE775
:1007500090E0C6C0923049F420E09A858A899813C7
:1007600021E02A87CE010996BBC0823049F420E0FF
:100770009A858A89981321E02A8BCE014196B0C0D0
:100780002D843E844F8458886D887E888F88988C0D
:10079000EE24FF248701AA24BB24650140E050E039
:1007A00060E070E0E0E0F0E0C10181709070892BC2
:1007B000E9F0E60CF71C081D191D9A01AB012A0D82
:1007C0003B1D4C1D5D1D80E090E0A0E0B0E0E61414
:1007D000F7040805190520F481E090E0A0E0B0E0FE
:1007E000BA01A901480F591F6A1F7B1FAA0CBB1C25
:1007F000CC1CDD1C97FE08C081E090E0A0E0B0E0DA
:10080000A82AB92ACA2ADB2A3196E032F10549F032
:10081000660C771C881C991C56944794379427942F
:10082000C3CFFA85EA892B893C898B859C85280F63
:10083000391F2E5F3F4F17C0CA0181709070892BFE
:1008400061F016950795F794E79480E090E0A0E0BA
:10085000B0E8E82AF92A0A2B1B2B7695679557955D
:1008600047952F5F3F4F77FDE7CF0CC0440F551FD3
:10087000661F771F17FD4160EE0CFF1C001F111F44
:1008800021503040403090E0590790E0690790E4F3
:10089000790760F32B8F3C8FDB01CA018F77907053
:1008A000A070B07080349105A105B10561F447FDD9
:1008B0000AC0E114F1040105110529F0405C5F4F05
:1008C0006F4F7F4F40781A8EFE1711F081E08A8FAC
:1008D0004D8F5E8F6F8F78A383E0898FCE0149960D
:1008E00015D2A096E2E1FBC3A8E1B0E0E9E7F4E0AD
:1008F000E2C369837A838B839C832D833E834F83FA
:100900005887B9E0EB2EF12CEC0EFD1ECE010196BE
:10091000B701D1D28E010F5E1F4FCE010596B801EF
:10092000CAD22985223008F47EC03989323010F4C9
:10093000B8017CC08A859A8989278A87243011F07A
:10094000223031F4231709F06EC06AE770E06EC000
:10095000343039F41D861E861F86188A1C861B8635
:1009600004C0323021F484E08987B7015FC02B8551
:100970003C858B899C89281B390B3C872B87ED8410
:10098000FE840F851889AD88BE88CF88D88CEA147C
:10099000FB040C051D0540F4EE0CFF1C001F111F8D
:1009A000215030403C872B8720E030E040E050E091
:1009B00080E090E0A0E0B0E460E070E0EA14FB04C6
:1009C0000C051D0540F0282B392B4A2B5B2BEA1810
:1009D000FB080C091D09B695A79597958795EE0C10
:1009E000FF1C001F111F6F5F7F4F6F31710531F7C3
:1009F000DA01C9018F779070A070B07080349105D2
:100A0000A105B10561F427FD0AC0E114F104010557
:100A1000110529F0205C3F4F4F4F5F4F20782D8705
:100A20003E874F87588BBE01675F7F4FCB016ED1EA
:100A30006896EAE05CC3A8E1B0E0E0E2F5E03FC31D
:100A400069837A838B839C832D833E834F8358876E
:100A500089E0E82EF12CEC0EFD1ECE010196B701C7
:100A60002AD28E010F5E1F4FCE010596B80123D208
:100A70008985823038F08989823020F0C701B80139
:100A800092D201C081E06896E6E035C3A8E1B0E00B
:100A9000EBE4F5E014C369837A838B839C832D8315
:100AA0003E834F83588789E0E82EF12CEC0EFD1E23
:100AB000CE010196B701FFD18E010F5E1F4FCE010F
:100AC0000596B801F8D18985823038F0898982305D
:100AD00020F0C701B80167D201C081E06896E6E066
:100AE0000AC3ACE0B0E0E6E7F5E0EDC269837A83E3
:100AF0008B839C83CE010196BE016B5F7F4FDBD160
:100B00008D81823061F1823050F1843021F48E8108
:100B1000882351F12EC02F81388537FD20C06E818A
:100B20002F3131051CF06623F9F023C08EE190E0EF
:100B3000821B930B29853A854B855C8504C05695AD
:100B40004795379527958A95D2F76623B1F050954A
:100B50004095309521953F4F4F4F5F4F0EC020E09D
:100B600030E040E050E009C02FEF3FEF4FEF5FE78C
:100B700004C020E030E040E050E8B901CA012C9602
:100B8000E2E0BDC2A8E0B0E0E7ECF5E094C27B0192
:100B90008C01611571058105910519F482E0898345
:100BA0005FC083E089838EE1C82ED12CDC82CB82AA
:100BB000ED82FE820F831887C801B70158D0FC016F
:100BC0003197F7FF3BC0222733272E1B3F0B5701DE
:100BD0006801022E04C0D694C794B794A7940A94CF
:100BE000D2F740E050E060E070E081E090E0A0E00B
:100BF000B0E004C0880F991FAA1FBB1F2A95D2F727
:100C00000197A109B1098E219F21A023B12300974B
:100C1000A105B10521F041E050E060E070E04A2913
:100C20005B296C297D294D835E836F8378878EE1F4
:100C300090E08E1B9F0B9C838B8312C0309781F0BA
:100C40000E2E04C0EE0CFF1C001F111F0A94D2F7D9
:100C5000ED82FE820F831887CE1ADF0ADC82CB82F8
:100C60001A82CE01019652D02896EAE040C2EF9255
:100C7000FF920F931F937B018C0180E0E81680E0C8
:100C8000F80681E0080780E0180788F48FEFE8167F
:100C9000F1040105110531F028F088E090E0A0E0B2
:100CA000B0E017C080E090E0A0E0B0E012C080E0CB
:100CB000E81680E0F80680E0080781E0180728F0D1
:100CC00088E190E0A0E0B0E004C080E190E0A0E026
:100CD000B0E020E230E040E050E0281B390B4A0B46
:100CE0005B0B04C016950795F794E7948A95D2F7A5
:100CF000F701EE57FF4F8081281B31094109510947
:100D0000C9011F910F91FF90EF900895DF92EF922C
:100D1000FF920F931F93FC01E480F58006811781F9
:100D2000D1808081823048F480E090E0A0E1B0E0A2
:100D3000E82AF92A0A2B1B2BA5C0843009F49FC08E
:100D4000823021F4EE24FF24870105C0E114F10470
:100D50000105110519F4E0E0F0E096C062817381AD
:100D60009FEF623879070CF05BC022E83FEF261B4B
:100D7000370B2A3131052CF020E030E040E050E024
:100D80002AC0B801A701022E04C076956795579531
:100D900047950A94D2F781E090E0A0E0B0E004C06B
:100DA000880F991FAA1FBB1F2A95D2F70197A10987
:100DB000B1098E219F21A023B1230097A105B10580
:100DC00021F081E090E0A0E0B0E09A01AB01282B97
:100DD000392B4A2B5B2BDA01C9018F779070A070F9
:100DE000B07080349105A105B10539F427FF09C021
:100DF000205C3F4F4F4F5F4F04C0215C3F4F4F4F30
:100E00005F4FE0E0F0E02030A0E03A07A0E04A07C2
:100E1000A0E45A0710F0E1E0F0E079018A0127C070
:100E20006038710564F5FB01E158FF4FD801C70137
:100E30008F779070A070B07080349105A105B105D6
:100E400039F4E7FE0DC080E490E0A0E0B0E004C01B
:100E50008FE390E0A0E0B0E0E80EF91E0A1F1B1F30
:100E600017FF05C016950795F794E794319687E02C
:100E700016950795F794E7948A95D1F705C0EE2467
:100E8000FF248701EFEFF0E06E2F679566276795E7
:100E9000902F9F77D794DD24D7948E2F8695492F56
:100EA000462B582F5D29B701CA011F910F91FF9062
:100EB000EF90DF900895FC01DB0140815181228198
:100EC000622F6F7770E0221F2227221F9381892FC4
:100ED000880F822B282F30E0991F9927991F119690
:100EE0009C93119721153105A9F54115510561050F
:100EF000710511F482E037C082E89FEF13969C934E
:100F00008E9312979A01AB0167E0220F331F441FA3
:100F1000551F6A95D1F783E08C930DC0220F331FC4
:100F2000441F551F12968D919C911397019713960C
:100F30009C938E931297203080E0380780E048071A
:100F400080E4580758F314962D933D934D935C938A
:100F5000179708952F3F310579F441155105610523
:100F6000710519F484E08C93089564FF03C081E057
:100F70008C9312C01C9210C02F57304013963C9394
:100F80002E93129783E08C9387E0440F551F661FC2
:100F9000771F8A95D1F7706414964D935D936D9386
:100FA0007C93179708951F93DC01FB019C9192306D
:100FB00008F447C08081823008F443C0943051F473
:100FC00011961C91843099F58181682F70E0611B26
:100FD00071093FC0843021F0923031F48230B9F190
:100FE0008181882389F12DC011961C91119782303F
:100FF000F1F081811817D9F412962D913C91139735
:10100000828193818217930794F028173907BCF0E7
:1010100014968D919D910D90BC91A02D24813581C8
:1010200046815781281739074A075B0718F41123AF
:1010300041F00AC082179307A407B50740F41123B3
:1010400019F061E070E005C06FEF7FEF02C060E073
:1010500070E0CB011F910895AA1BBB1B51E107C093
:10106000AA1FBB1FA617B70710F0A61BB70B881F38
:10107000991F5A95A9F780959095BC01CD010895C7
:1010800097FB092E07260AD077FD04D0E5DF06D0AE
:1010900000201AF4709561957F4F0895F6F79095AA
:1010A00081959F4F08952F923F924F925F926F923A
:1010B0007F928F929F92AF92BF92CF92DF92EF92E8
:1010C000FF920F931F93CF93DF93CDB7DEB7CA1B69
:1010D000DB0B0FB6F894DEBF0FBECDBF09942A8894
:1010E000398848885F846E847D848C849B84AA843C
:1010F000B984C884DF80EE80FD800C811B81AA81C9
:10110000B981CE0FD11D0FB6F894DEBF0FBECDBF93
:08111000ED010895F894FFCFF2
:1011180030303030003030002E00300043757272AD
:10112800656E743A002D006D41000000000000005B
:10113800000000010202030303030404040404047E
:101148000404050505050505050505050505050549
:101158000505060606060606060606060606060629
:101168000606060606060606060606060606060617
:1011780006060707070707070707070707070707F9
:1011880007070707070707070707070707070707E7
:1011980007070707070707070707070707070707D7
:1011A80007070707070707070707070707070707C7
:1011B80007070808080808080808080808080808A9
:1011C8000808080808080808080808080808080897
:1011D8000808080808080808080808080808080887
:1011E8000808080808080808080808080808080877
:1011F8000808080808080808080808080808080867
:101208000808080808080808080808080808080856
:101218000808080808080808080808080808080846
:101228000808080808080808080808080808080836
:021238000808A4
:00000001FF
